{
  "contractName": "Discography",
  "abi": [
    {
      "constant": false,
      "inputs": [
        {
          "name": "self",
          "type": "Discography.Release storage"
        },
        {
          "name": "_purchaserAddress",
          "type": "address"
        }
      ],
      "name": "updateReleaseSold",
      "outputs": [],
      "payable": false,
      "stateMutability": "nonpayable",
      "type": "function"
    }
  ],
  "bytecode": "0x610142610030600b82828239805160001a6073146000811461002057610022565bfe5b5030600052607381538281f3007300000000000000000000000000000000000000003014608060405260043610610058576000357c0100000000000000000000000000000000000000000000000000000000900463ffffffff1680638c2253c51461005d575b600080fd5b81801561006957600080fd5b506100a860048036038101908080359060200190929190803573ffffffffffffffffffffffffffffffffffffffff1690602001909291905050506100aa565b005b816006018190806001815401808255809150509060018203906000526020600020016000909192909190916101000a81548173ffffffffffffffffffffffffffffffffffffffff021916908373ffffffffffffffffffffffffffffffffffffffff1602179055505050505600a165627a7a72305820628ba067ae9d7a4fe0fce908ceff9ef27563630664bcc77c46b4651b8986a0670029",
  "source": "pragma solidity ^0.4.24;\n\nlibrary Discography {\n\n  struct Release {\n    uint releaseSku;\n    string artist;\n    string name;\n    uint tracksCount;\n    uint price;\n    address seller;\n    address[] purchasers;\n  }\n\n  struct Track {\n    uint releaseSku;\n    uint trackSku;\n    string artist;\n    string name;\n    uint price;\n    address seller;\n    address[] purchasers;\n  }\n\n  /** @dev Update item status to Sold\n    * @param self The item that was sold\n    */\n  function updateReleaseSold(Release storage self, address _purchaserAddress)\n    public\n  {\n    self.purchasers.push(_purchaserAddress);\n  }\n\n}\n",
  "sourcePath": "/home/tserg/music-store/contracts/Discography.sol",
  "compiler": {
    "name": "solc",
    "version": "0.4.24+commit.e67f0147.Emscripten.clang"
  },
  "schemaVersion": "2.0.1",
  "updatedAt": "2018-12-02T05:09:06.227Z"
}