{
  "contractName": "MusicStore",
  "abi": [
    {
      "constant": true,
      "inputs": [],
      "name": "releaseId",
      "outputs": [
        {
          "name": "",
          "type": "uint256"
        }
      ],
      "payable": false,
      "stateMutability": "view",
      "type": "function"
    },
    {
      "constant": true,
      "inputs": [],
      "name": "stopped",
      "outputs": [
        {
          "name": "",
          "type": "bool"
        }
      ],
      "payable": false,
      "stateMutability": "view",
      "type": "function"
    },
    {
      "constant": true,
      "inputs": [
        {
          "name": "",
          "type": "uint256"
        }
      ],
      "name": "releaseList",
      "outputs": [
        {
          "name": "releaseSku",
          "type": "uint256"
        },
        {
          "name": "artist",
          "type": "string"
        },
        {
          "name": "name",
          "type": "string"
        },
        {
          "name": "tracksCount",
          "type": "uint256"
        },
        {
          "name": "price",
          "type": "uint256"
        },
        {
          "name": "seller",
          "type": "address"
        }
      ],
      "payable": false,
      "stateMutability": "view",
      "type": "function"
    },
    {
      "constant": true,
      "inputs": [],
      "name": "owner",
      "outputs": [
        {
          "name": "",
          "type": "address"
        }
      ],
      "payable": false,
      "stateMutability": "view",
      "type": "function"
    },
    {
      "constant": true,
      "inputs": [
        {
          "name": "",
          "type": "uint256"
        }
      ],
      "name": "trackList",
      "outputs": [
        {
          "name": "releaseSku",
          "type": "uint256"
        },
        {
          "name": "trackSku",
          "type": "uint256"
        },
        {
          "name": "artist",
          "type": "string"
        },
        {
          "name": "name",
          "type": "string"
        },
        {
          "name": "price",
          "type": "uint256"
        },
        {
          "name": "seller",
          "type": "address"
        }
      ],
      "payable": false,
      "stateMutability": "view",
      "type": "function"
    },
    {
      "constant": true,
      "inputs": [],
      "name": "trackId",
      "outputs": [
        {
          "name": "",
          "type": "uint256"
        }
      ],
      "payable": false,
      "stateMutability": "view",
      "type": "function"
    },
    {
      "inputs": [],
      "payable": false,
      "stateMutability": "nonpayable",
      "type": "constructor"
    },
    {
      "anonymous": false,
      "inputs": [
        {
          "indexed": false,
          "name": "releaseId",
          "type": "uint256"
        },
        {
          "indexed": false,
          "name": "releaseArtist",
          "type": "string"
        },
        {
          "indexed": false,
          "name": "releaseName",
          "type": "string"
        },
        {
          "indexed": false,
          "name": "releaseTracksCount",
          "type": "uint256"
        }
      ],
      "name": "ReleaseListed",
      "type": "event"
    },
    {
      "anonymous": false,
      "inputs": [
        {
          "indexed": false,
          "name": "releaseId",
          "type": "uint256"
        },
        {
          "indexed": false,
          "name": "trackId",
          "type": "uint256"
        },
        {
          "indexed": false,
          "name": "trackArtist",
          "type": "string"
        },
        {
          "indexed": false,
          "name": "trackName",
          "type": "string"
        }
      ],
      "name": "TrackListed",
      "type": "event"
    },
    {
      "anonymous": false,
      "inputs": [
        {
          "indexed": false,
          "name": "releaseId",
          "type": "uint256"
        },
        {
          "indexed": false,
          "name": "releasePricePaid",
          "type": "uint256"
        },
        {
          "indexed": false,
          "name": "purchaser",
          "type": "address"
        }
      ],
      "name": "ReleaseSold",
      "type": "event"
    },
    {
      "anonymous": false,
      "inputs": [
        {
          "indexed": false,
          "name": "trackId",
          "type": "uint256"
        },
        {
          "indexed": false,
          "name": "trackPricePaid",
          "type": "uint256"
        },
        {
          "indexed": false,
          "name": "purchaser",
          "type": "address"
        }
      ],
      "name": "TrackSold",
      "type": "event"
    },
    {
      "constant": false,
      "inputs": [
        {
          "name": "_artistName",
          "type": "string"
        },
        {
          "name": "_releaseName",
          "type": "string"
        },
        {
          "name": "_trackNames",
          "type": "string[]"
        },
        {
          "name": "_releasePrice",
          "type": "uint256"
        },
        {
          "name": "_trackPrice",
          "type": "uint256"
        }
      ],
      "name": "listRelease",
      "outputs": [],
      "payable": false,
      "stateMutability": "nonpayable",
      "type": "function"
    },
    {
      "constant": false,
      "inputs": [
        {
          "name": "sku",
          "type": "uint256"
        }
      ],
      "name": "buyRelease",
      "outputs": [],
      "payable": true,
      "stateMutability": "payable",
      "type": "function"
    },
    {
      "constant": true,
      "inputs": [
        {
          "name": "_releaseId",
          "type": "uint256"
        }
      ],
      "name": "fetchReleaseName",
      "outputs": [
        {
          "name": "_releaseName",
          "type": "string"
        }
      ],
      "payable": false,
      "stateMutability": "view",
      "type": "function"
    },
    {
      "constant": false,
      "inputs": [],
      "name": "kill",
      "outputs": [],
      "payable": false,
      "stateMutability": "nonpayable",
      "type": "function"
    },
    {
      "constant": false,
      "inputs": [],
      "name": "toggleContractActive",
      "outputs": [],
      "payable": false,
      "stateMutability": "nonpayable",
      "type": "function"
    }
  ],
  "bytecode": "0x608060405260008060146101000a81548160ff02191690831515021790555034801561002a57600080fd5b50336000806101000a81548173ffffffffffffffffffffffffffffffffffffffff021916908373ffffffffffffffffffffffffffffffffffffffff160217905550600060018190555060006002819055506115c08061008a6000396000f3006080604052600436106100af576000357c0100000000000000000000000000000000000000000000000000000000900463ffffffff16806303bf5c6b146100b45780631385d24c146100dd57806341c0e1b5146100f45780634d78d40b1461010b5780635b1716d61461013657806375f12b2114610152578063793693af1461017d5780637e3f1d6d146101bf5780638da5cb5b146101fc578063dbbb497914610227578063fbf4062414610269575b600080fd5b3480156100c057600080fd5b506100db60048036036100d69190810190611042565b610294565b005b3480156100e957600080fd5b506100f261063b565b005b34801561010057600080fd5b506101096106c2565b005b34801561011757600080fd5b50610120610757565b60405161012d919061125a565b60405180910390f35b610150600480360361014b9190810190611101565b61075d565b005b34801561015e57600080fd5b5061016761098c565b60405161017491906111f4565b60405180910390f35b34801561018957600080fd5b506101a4600480360361019f9190810190611101565b61099f565b6040516101b6969594939291906112c8565b60405180910390f35b3480156101cb57600080fd5b506101e660048036036101e19190810190611101565b610b2b565b6040516101f3919061120f565b60405180910390f35b34801561020857600080fd5b50610211610be3565b60405161021e91906111d9565b60405180910390f35b34801561023357600080fd5b5061024e60048036036102499190810190611101565b610c08565b604051610260969594939291906113c1565b60405180910390f35b34801561027557600080fd5b5061027e610d94565b60405161028b919061125a565b60405180910390f35b6060806000606060006060600060149054906101000a900460ff161515156102bb57600080fd5b8a9550600086511115156102ce57600080fd5b899450600085511115156102e157600080fd5b6000881115156102f057600080fd5b6000871115156102ff57600080fd5b600180600082825401925050819055508851935060e06040519081016040528060015481526020018c81526020018b81526020018581526020018981526020013373ffffffffffffffffffffffffffffffffffffffff1681526020018481525060036000600154815260200190815260200160002060008201518160000155602082015181600101908051906020019061039a929190610d9a565b5060408201518160020190805190602001906103b7929190610d9a565b50606082015181600301556080820151816004015560a08201518160050160006101000a81548173ffffffffffffffffffffffffffffffffffffffff021916908373ffffffffffffffffffffffffffffffffffffffff16021790555060c082015181600601908051906020019061042f929190610e1a565b509050507fcd044ea594f4b9edb90f6dcd9443b0f997e968574a2925dd36673629ae98a7356001548c8c8760405161046a9493929190611275565b60405180910390a1600091505b8382101561062e57600160026000828254019250508190555060e060405190810160405280600154815260200160025481526020018c81526020018a848151811015156104c057fe5b9060200190602002015181526020018881526020013373ffffffffffffffffffffffffffffffffffffffff168152602001828152506004600060025481526020019081526020016000206000820151816000015560208201518160010155604082015181600201908051906020019061053a929190610d9a565b506060820151816003019080519060200190610557929190610d9a565b506080820151816004015560a08201518160050160006101000a81548173ffffffffffffffffffffffffffffffffffffffff021916908373ffffffffffffffffffffffffffffffffffffffff16021790555060c08201518160060190805190602001906105c5929190610e1a565b509050507f532e5a6eb2a366563ee96a3a0cb34cbc34e45b82769e59e51fe54ec9c9af31d36001546002548d8c868151811015156105ff57fe5b90602001906020020151604051610619949392919061136e565b60405180910390a18180600101925050610477565b5050505050505050505050565b6000809054906101000a900473ffffffffffffffffffffffffffffffffffffffff1673ffffffffffffffffffffffffffffffffffffffff163373ffffffffffffffffffffffffffffffffffffffff1614151561069657600080fd5b600060149054906101000a900460ff1615600060146101000a81548160ff021916908315150217905550565b6000809054906101000a900473ffffffffffffffffffffffffffffffffffffffff1673ffffffffffffffffffffffffffffffffffffffff163373ffffffffffffffffffffffffffffffffffffffff1614151561071d57600080fd5b6000809054906101000a900473ffffffffffffffffffffffffffffffffffffffff1673ffffffffffffffffffffffffffffffffffffffff16ff5b60015481565b600060149054906101000a900460ff1615151561077957600080fd5b600360008281526020019081526020016000206004015480341015151561079f57600080fd5b813360008073__Discography___________________________638c2253c560036000898152602001908152602001600020336040518363ffffffff167c010000000000000000000000000000000000000000000000000000000002815260040161080b929190611231565b60006040518083038186803b15801561082357600080fd5b505af4158015610837573d6000803e3d6000fd5b505050506003600087815260200190815260200160002060050160009054906101000a900473ffffffffffffffffffffffffffffffffffffffff1673ffffffffffffffffffffffffffffffffffffffff166108fc60036000898152602001908152602001600020600401549081150290604051600060405180830381858888f193505050501580156108cd573d6000803e3d6000fd5b507fadf00429990e0b4c0234206c1a30bd6f73d246e2fa7a58e48414ab740d38fcaf8660036000898152602001908152602001600020600401543360405161091793929190611337565b60405180910390a16003600085815260200190815260200160002060040154915081340390508273ffffffffffffffffffffffffffffffffffffffff166108fc829081150290604051600060405180830381858888f19350505050158015610983573d6000803e3d6000fd5b50505050505050565b600060149054906101000a900460ff1681565b6003602052806000526040600020600091509050806000015490806001018054600181600116156101000203166002900480601f016020809104026020016040519081016040528092919081815260200182805460018160011615610100020316600290048015610a515780601f10610a2657610100808354040283529160200191610a51565b820191906000526020600020905b815481529060010190602001808311610a3457829003601f168201915b505050505090806002018054600181600116156101000203166002900480601f016020809104026020016040519081016040528092919081815260200182805460018160011615610100020316600290048015610aef5780601f10610ac457610100808354040283529160200191610aef565b820191906000526020600020905b815481529060010190602001808311610ad257829003601f168201915b5050505050908060030154908060040154908060050160009054906101000a900473ffffffffffffffffffffffffffffffffffffffff16905086565b6060600360008381526020019081526020016000206002018054600181600116156101000203166002900480601f016020809104026020016040519081016040528092919081815260200182805460018160011615610100020316600290048015610bd75780601f10610bac57610100808354040283529160200191610bd7565b820191906000526020600020905b815481529060010190602001808311610bba57829003601f168201915b50505050509050919050565b6000809054906101000a900473ffffffffffffffffffffffffffffffffffffffff1681565b6004602052806000526040600020600091509050806000015490806001015490806002018054600181600116156101000203166002900480601f016020809104026020016040519081016040528092919081815260200182805460018160011615610100020316600290048015610cc05780601f10610c9557610100808354040283529160200191610cc0565b820191906000526020600020905b815481529060010190602001808311610ca357829003601f168201915b505050505090806003018054600181600116156101000203166002900480601f016020809104026020016040519081016040528092919081815260200182805460018160011615610100020316600290048015610d5e5780601f10610d3357610100808354040283529160200191610d5e565b820191906000526020600020905b815481529060010190602001808311610d4157829003601f168201915b5050505050908060040154908060050160009054906101000a900473ffffffffffffffffffffffffffffffffffffffff16905086565b60025481565b828054600181600116156101000203166002900490600052602060002090601f016020900481019282601f10610ddb57805160ff1916838001178555610e09565b82800160010185558215610e09579182015b82811115610e08578251825591602001919060010190610ded565b5b509050610e169190610ea4565b5090565b828054828255906000526020600020908101928215610e93579160200282015b82811115610e925782518260006101000a81548173ffffffffffffffffffffffffffffffffffffffff021916908373ffffffffffffffffffffffffffffffffffffffff16021790555091602001919060010190610e3a565b5b509050610ea09190610ec9565b5090565b610ec691905b80821115610ec2576000816000905550600101610eaa565b5090565b90565b610f0991905b80821115610f0557600081816101000a81549073ffffffffffffffffffffffffffffffffffffffff021916905550600101610ecf565b5090565b90565b600082601f8301121515610f1f57600080fd5b8135610f32610f2d8261145d565b611430565b9150818183526020840193506020810190508360005b83811015610f785781358601610f5e8882610f82565b845260208401935060208301925050600181019050610f48565b5050505092915050565b600082601f8301121515610f9557600080fd5b8135610fa8610fa382611485565b611430565b91508082526020830160208301858383011115610fc457600080fd5b610fcf838284611533565b50505092915050565b600082601f8301121515610feb57600080fd5b8135610ffe610ff9826114b1565b611430565b9150808252602083016020830185838301111561101a57600080fd5b611025838284611533565b50505092915050565b600061103a8235611529565b905092915050565b600080600080600060a0868803121561105a57600080fd5b600086013567ffffffffffffffff81111561107457600080fd5b61108088828901610fd8565b955050602086013567ffffffffffffffff81111561109d57600080fd5b6110a988828901610fd8565b945050604086013567ffffffffffffffff8111156110c657600080fd5b6110d288828901610f0c565b93505060606110e38882890161102e565b92505060806110f48882890161102e565b9150509295509295909350565b60006020828403121561111357600080fd5b60006111218482850161102e565b91505092915050565b611133816114f3565b82525050565b611142816114f3565b82525050565b61115181611513565b82525050565b6000611162826114e8565b808452611176816020860160208601611542565b61117f81611575565b602085010191505092915050565b6000611198826114dd565b8084526111ac816020860160208601611542565b6111b581611575565b602085010191505092915050565b8082525050565b6111d38161151f565b82525050565b60006020820190506111ee600083018461112a565b92915050565b60006020820190506112096000830184611148565b92915050565b600060208201905081810360008301526112298184611157565b905092915050565b600060408201905061124660008301856111c3565b6112536020830184611139565b9392505050565b600060208201905061126f60008301846111ca565b92915050565b600060808201905061128a60008301876111ca565b818103602083015261129c8186611157565b905081810360408301526112b08185611157565b90506112bf60608301846111ca565b95945050505050565b600060c0820190506112dd60008301896111ca565b81810360208301526112ef818861118d565b90508181036040830152611303818761118d565b905061131260608301866111ca565b61131f60808301856111ca565b61132c60a083018461112a565b979650505050505050565b600060608201905061134c60008301866111ca565b61135960208301856111ca565b611366604083018461112a565b949350505050565b600060808201905061138360008301876111ca565b61139060208301866111ca565b81810360408301526113a28185611157565b905081810360608301526113b6818461118d565b905095945050505050565b600060c0820190506113d660008301896111ca565b6113e360208301886111ca565b81810360408301526113f5818761118d565b90508181036060830152611409818661118d565b905061141860808301856111ca565b61142560a083018461112a565b979650505050505050565b6000604051905081810181811067ffffffffffffffff8211171561145357600080fd5b8060405250919050565b600067ffffffffffffffff82111561147457600080fd5b602082029050602081019050919050565b600067ffffffffffffffff82111561149c57600080fd5b601f19601f8301169050602081019050919050565b600067ffffffffffffffff8211156114c857600080fd5b601f19601f8301169050602081019050919050565b600081519050919050565b600081519050919050565b600073ffffffffffffffffffffffffffffffffffffffff82169050919050565b60008115159050919050565b6000819050919050565b6000819050919050565b82818337600083830152505050565b60005b83811015611560578082015181840152602081019050611545565b8381111561156f576000848401525b50505050565b6000601f19601f83011690509190505600a265627a7a72305820bab7fc9a978172101751644bdd4c9f792e1212e428f27004f909a5e4f2808e826c6578706572696d656e74616cf50037",
  "source": "pragma solidity ^0.4.24;\npragma experimental ABIEncoderV2;\n\nimport \"./Discography.sol\";\n\ncontract MusicStore {\n\n  // set owner\n  address public owner;\n\n  // circuit breaker\n\n  bool public stopped = false;\n\n  /*\n    releaseId: total number of releases listed\n    trackId: total number of tracks listed\n  */\n  uint public releaseId;\n  uint public trackId;\n\n  /*\n    releaseList: releaseId mapped to Release\n    trackList: trackId mapped to Track\n  */\n\n  mapping (uint => Discography.Release) public releaseList;\n  mapping (uint => Discography.Track) public trackList;\n\n  event ReleaseListed(uint releaseId, string releaseArtist, string releaseName, uint releaseTracksCount);\n  event TrackListed(uint releaseId, uint trackId, string trackArtist, string trackName);\n\n  event ReleaseSold(uint releaseId, uint releasePricePaid, address purchaser);\n  event TrackSold(uint trackId, uint trackPricePaid, address purchaser);\n\n  modifier verifyOwner { require(msg.sender == owner); _;}\n\n  modifier paidEnough(uint _price) {require(msg.value >= _price); _;}\n  modifier checkReleaseValue(uint _sku, address _buyer) {\n    _;\n    uint _price = releaseList[_sku].price;\n    uint amountToRefund = msg.value - _price;\n    _buyer.transfer(amountToRefund);\n  }\n  modifier checkTrackValue(uint _sku, address _buyer) {\n    _;\n    uint _price = trackList[_sku].price;\n    uint amountToRefund = msg.value - _price;\n    _buyer.transfer(amountToRefund);\n  }\n\n  modifier stopInEmergency { require(!stopped); _;}\n\n  constructor() public {\n    owner = msg.sender;\n    releaseId = 0;\n    trackId = 0;\n  }\n\n  /** @dev Lists a release for sale\n    * @param _artistName Name of the artist\n    * @param _releaseName Name of the release\n    * @param _trackNames Names of the tracks\n    * @param _releasePrice Price of the release\n    * @param _trackPrice Price of each track\n    */\n  function listRelease(string _artistName, string _releaseName, string[] _trackNames,\n    uint _releasePrice, uint _trackPrice)\n    public\n    stopInEmergency\n  {\n    // ensure _artistName, _releaseName and _trackNames are not empty\n    bytes memory tempName1 = bytes(_artistName);\n    require(tempName1.length > 0);\n\n    bytes memory tempName2 = bytes(_releaseName);\n    require(tempName2.length > 0);\n\n\n    // ensure _releasePrice and _trackPrice are positive\n    require(_releasePrice > 0);\n    require(_trackPrice > 0);\n\n    releaseId += 1;\n\n    uint _tracksCount = _trackNames.length;\n\n    address[] memory _releasePurchasers;\n\n    releaseList[releaseId] = Discography.Release({releaseSku: releaseId, artist: _artistName,\n      name: _releaseName, tracksCount: _tracksCount, price: _releasePrice,\n      seller: msg.sender, purchasers: _releasePurchasers});\n\n    emit ReleaseListed(releaseId, _artistName, _releaseName, _tracksCount);\n\n    for (uint i=0; i < _tracksCount; i++) {\n\n      trackId += 1;\n\n      address[] memory _trackPurchasers;\n\n      trackList[trackId] = Discography.Track({releaseSku: releaseId, trackSku: trackId,\n        artist: _artistName, name: _trackNames[i], price: _trackPrice, seller: msg.sender,\n        purchasers: _trackPurchasers});\n      emit TrackListed(releaseId, trackId, _artistName, _trackNames[i]);\n    }\n\n  }\n\n  /** @dev Buys an item listed for sale\n    * @param sku The id of the item to be bought\n    */\n  function buyRelease(uint sku)\n    public\n    payable\n    stopInEmergency\n    paidEnough(releaseList[sku].price)\n    checkReleaseValue(sku, msg.sender)\n  {\n    Discography.updateReleaseSold(releaseList[sku], msg.sender);\n    releaseList[sku].seller.transfer(releaseList[sku].price);\n    emit ReleaseSold(sku, releaseList[sku].price, msg.sender);\n  }\n\n\n  /** @dev Return the name of a Release Id\n    * @param _releaseId The Release to look up\n    * @return _releaseName The name of the release\n    */\n  function fetchReleaseName(uint _releaseId)\n    public\n    view\n    returns (string _releaseName)\n  {\n    _releaseName = releaseList[_releaseId].name;\n  }\n\n  /** @dev Destroy the contract\n    */\n  function kill()\n    public\n    verifyOwner\n  {\n    selfdestruct(owner);\n  }\n\n  /** @dev Stop the contract\n    */\n  function toggleContractActive()\n    public\n    verifyOwner\n  {\n    stopped = !stopped;\n  }\n\n\n}\n",
  "sourcePath": "/home/tserg/music-store/contracts/MusicStore.sol",
  "compiler": {
    "name": "solc",
    "version": "0.4.24+commit.e67f0147.Emscripten.clang"
  },
  "schemaVersion": "2.0.1",
  "updatedAt": "2018-12-02T05:09:06.243Z"
}